:020000040800F2
:1000000000000120A1030008F1030008F10300082B
:10001000F1030008F1030008F103000800000000EC
:10002000000000000000000000000000F1030008D4
:10003000F103000800000000F1030008F1030008CC
:10004000F1030008F1030008F1030008F1030008C0
:10005000F1030008F1030008F1030008F1030008B0
:10006000F1030008F1030008F1030008F1030008A0
:10007000F1030008F1030008F1030008F103000890
:10008000F1030008F1030008F1030008000000007C
:10009000000000000000000000000000F103000864
:1000A000F1030008F1030008F1030008F103000860
:1000B000F1030008F1030008F1030008F103000850
:1000C000F1030008F1030008F1030008F103000840
:1000D000F1030008F1030008F1030008000000002C
:1000E000F1030008F1030008F1030008000000001C
:1000F000000000000000000000000000F103000804
:1001000000000000F1030008F1030008F1030008FB
:1001100000000000000000000000000000000000DF
:10012000F1030008F1030008F1030008F1030008DF
:10013000F1030008000000000000000000000000C3
:10014000000000000000000000000000F1030008B3
:10015000F1030008F1030008F1030008F1030008AF
:10016000F1030008F1030008000000000000000097
:10017000000000000000000000000000000000007F
:1001800000000000F1030008000000000000000073
:04019000F10300086F
:1001940010B5054C237833B9044B13B10448AFF3BD
:1001A40000800123237010BD000000200000000027
:1001B400D807000808B5034B1BB103490348AFF344
:1001C400008008BD0000000004000020D8070008DB
:1001D40080B582B000AF002301220521422000F047
:1001E40007F9002301220621422000F001F900232F
:1001F40001220721422000F0FBF801230022032101
:10020400422000F0F5F801237B6000233B600321CA
:10021400422000F08FFA03467B607B68002B07D1F5
:100224003B68082B01D100233B603B6801333B60F2
:100234003B68013B072B00F29A8001A252F823F09D
:100244006502000885020008A5020008C50200082E
:10025400E50200080503000825030008450300081B
:1002640001220521422000F0F3F900220621422058
:1002740000F0EEF900220721422000F0E9F96FE0D6
:1002840000220521422000F0E3F901220621422048
:1002940000F0DEF900220721422000F0D9F95FE0E6
:1002A40001220521422000F0D3F901220621422037
:1002B40000F0CEF900220721422000F0C9F94FE0F6
:1002C40000220521422000F0C3F900220621422029
:1002D40000F0BEF901220721422000F0B9F93FE005
:1002E40001220521422000F0B3F900220621422018
:1002F40000F0AEF901220721422000F0A9F92FE015
:1003040000220521422000F0A3F901220621422007
:1003140000F09EF901220721422000F099F91FE024
:1003240001220521422000F093F9012206214220F6
:1003340000F08EF901220721422000F089F90FE034
:1003440000220521422000F083F9002206214220E8
:1003540000F07EF900220721422000F079F900BF65
:1003640005E00321422000F0E5F903467B607B6849
:10037400002BF6D04BE700BF80B400AF064BD3F898
:100384008830054A43F47003C2F8883000BFBD4684
:100394005DF8047B704700BF00ED00E0DFF834D067
:1003A4000D480E490E4A002302E0D458C4500433C9
:1003B400C4188C42F9D30B4A0B4C002301E01360A0
:1003C4000432A242FBD3FFF7D7FF00F0DFF9FFF7B7
:1003D400FFFE704700000120000000200000002004
:1003E400F8070008000000201C000020FEE70000C1
:1003F40080B485B000AFB9607A603B600346FB739C
:10040400FB7B412B03D0422B00F08C8014E18D4BFD
:100414001B6B8C4A43F0010313637B68032B3CD8AA
:1004240001A252F823F000BF3D040008570400085D
:100434006F04000887040008834B1B68BA685200E5
:10044400032101FA02F2D24311467F4A0B401360A2
:1004540023E07D4B1B68BA685200012101FA02F2C5
:100464001146794A0B43136017E0774B1B68BA684F
:100474005200022101FA02F21146734A0B4313603F
:100484000BE0714B1B68BA685200032101FA02F2B7
:1004940011466D4A0B43136000BF7B68002B1ED1CD
:1004A4003B68012B03D03B68022B0CD0C4E0664BA5
:1004B400DB68BA685200012101FA02F21146624A6D
:1004C4000B43D3602DE0604BDB68BA685200022115
:1004D40001FA02F211465C4A0B43D36021E07B68C7
:1004E400012B1DD13B68002B03D03B68012B0CD0A2
:1004F400A2E0554B5B680121BA6801FA02F2D243CB
:100504001146514A0B4053600BE04F4B5B6801218D
:10051400BA6801FA02F211464B4A0B43536000E0F9
:1005240000BF89E0474B1B6B464A43F00203136349
:100534007B68032B3BD801A252F823F05105000835
:100544006B050008830500089B0500083F4B1B68EA
:10055400BA685200032101FA02F2D24311463B4A1F
:100564000B40136023E0394B1B68BA685200012129
:1005740001FA02F21146354A0B43136017E0334B7C
:100584001B68BA685200022101FA02F211462F4A8E
:100594000B4313600BE02D4B1B68BA685200032118
:1005A40001FA02F21146294A0B43136000BF7B682B
:1005B400002B1ED13B68012B03D03B68022B0CD0CF
:1005C40039E0224BDB68BA685200012101FA02F2D9
:1005D40011461E4A0B43D3602DE01C4BDB68BA68FE
:1005E4005200022101FA02F21146184A0B43D36069
:1005F40021E07B68012B1DD13B68002B03D03B68B5
:10060400012B0CD017E0114B5B680121BA6801FA89
:1006140002F2D24311460D4A0B4053600BE00B4BE0
:100624005B680121BA6801FA02F21146074A0B43DA
:10063400536000E000BF00BF00BF1437BD465DF843
:10064400047B70470038024000000240000402406E
:1006540080B487B000AF0346B9607A60FB73FB7B5C
:10066400412B02D0422B2DD059E0304B1B68BA6885
:100674005200032101FA02F21A40BB685B0022FA1D
:1006840003F3012B1BD17B68002B0AD0274B5B693A
:100694000121BA6801FA02F21146244A0B4353615C
:1006A4000AE0224B5B690121BA6801FA02F2D243E3
:1006B40011461E4A0B4053610023FB752FE00123B2
:1006C400FB752CE01A4B1B68BA685200032101FA2F
:1006D40002F21A40BB685B0022FA03F3012B1BD120
:1006E4007B68002B0AD0124B5B690121BA6801FABE
:1006F40002F211460E4A0B4353610AE00C4B5B694C
:100704000121BA6801FA02F2D2431146084A0B40A9
:1007140053610023FB7501E00123FB7500BFFB7DE2
:1007240018461C37BD465DF8047B70470000024044
:100734000004024080B485B000AF03463960FB7109
:10074400FB79412B02D0422B0AD013E00D4B1A69DE
:100754003B6822FA03F3DBB203F00103FB7309E005
:10076400094B1A693B6822FA03F3DBB203F0010375
:10077400FB7300BFFB7B18461437BD465DF8047B52
:10078400704700BF000002400004024070B50D4DE8
:100794000D4C641BA4100026A64209D10B4D0C4C31
:1007A40000F018F8641BA4100026A64205D170BD01
:1007B40055F8043B98470136EEE755F8043B984753
:1007C4000136F2E7F0070008F0070008F007000818
:1007D400F4070008F8B500BFF8BC08BC9E46704793
:0C07E400F8B500BFF8BC08BC9E4670478A
:0407F000B901000843
:0407F4009501000863
:04000005080003A14B
:00000001FF
