:020000040800F2
:1000000000000120FD060008850600088B06000898
:1000100091060008970600089D06000800000000F1
:10002000000000000000000000000000A30600081F
:10003000B106000800000000BF060008CD06000859
:100040004D0700084D0700084D0700084D07000840
:100050004D0700084D070008D50500082D060008CB
:100060004D0700084D0700084D0700084D07000820
:100070004D0700084D0700084D0700084D07000810
:100080004D0700084D0700084D070008000000005C
:100090000000000000000000000000004D07000804
:1000A0004D0700084D0700084D0700084D070008E0
:1000B0004D0700084D0700084D0700084D070008D0
:1000C0004D0700084D0700084D0700084D070008C0
:1000D0004D0700084D0700084D070008000000000C
:1000E0004D0700084D0700084D07000800000000FC
:1000F0000000000000000000000000004D070008A4
:10010000000000004D0700084D0700084D070008DB
:1001100000000000000000000000000000000000DF
:100120004D0700084D0700084D0700084D0700085F
:100130004D07000800000000000000000000000063
:100140000000000000000000000000004D07000853
:100150004D0700084D0700084D0700084D0700082F
:100160004D0700084D0700080000000000000000D7
:10017000000000000000000000000000000000007F
:10018000000000004D070008000000000000000013
:040190004D0700080F
:1001940010B5054C237833B9044B13B10448AFF3BD
:1001A40000800123237010BD5400002000000000D3
:1001B400C007000808B5034B1BB103490348AFF35C
:1001C400008008BD0000000058000020C00700089F
:1001D40080B483B000AF0346FB71084B1B68FA7907
:1001E400012101FA02F21146044A0B43136000BFD5
:1001F4000C37BD465DF8047B704700BF30380240C1
:1002040090B482B000AF0446084611461A4623460D
:10021400FB710346BB710B467B7113463B71FA7944
:10022400564913469B001344DB000B441B681968B2
:10023400BB795B00032202FA03F3DB431C46FA7921
:100244004E4813469B001344DB0003441B6801EA39
:1002540004021A60FA79494913469B001344DB00EF
:100264000B441B6819687A79BB795B0002FA03F3C3
:100274001C46FA79414813469B001344DB000344AF
:100284001B6841EA04021A60FA793C4913469B0050
:100294001344DB000B4404331B681968BB79012247
:1002A40002FA03F3DB431C46FA79344813469B00F5
:1002B4001344DB00034404331B6801EA04021A609C
:1002C400FA792E4913469B001344DB000B44043394
:1002D4001B6819683B7903F00102BB7902FA03F346
:1002E4001C46FA79254813469B001344DB0003445B
:1002F40004331B6841EA04021A60FA791F49134661
:100304009B001344DB000B440C331B681968BB7956
:100314005B00032202FA03F3DB431C46FA79174815
:1003240013469B001344DB0003440C331B6801EAAF
:1003340004021A60FA79114913469B001344DB0046
:100344000B440C331B6819683B795B1003F0030200
:10035400BB795B0002FA03F31C46FA79074813469B
:100364009B001344DB0003440C331B6841EA040282
:100374001A6000BF0837BD4690BC704700000020DB
:1003840090B484B000AF0346FB710B46BB711346B7
:100394007B71FA792C4913469B001344DB000B4410
:1003A4001B681B68BA795200032101FA02F21A4051
:1003B400BB795B0022FA03F3012B3DD17B79002B3F
:1003C4001BD0FA79204913469B001344DB000B44ED
:1003D40014331B681968BB79012202FA03F31C4623
:1003E400FA79194813469B001344DB000344143381
:1003F4001B6841EA04021A601BE0FA7912491346A9
:100404009B001344DB000B4414331B681968BB794D
:10041400012202FA03F3DB431C46FA790A48134625
:100424009B001344DB00034414331B6801EA0402F9
:100434001A600023FB7301E00123FB73FB7B184666
:100444001037BD4690BC70470000002080B582B0D4
:1004540000AF03460A46FB711346BB71FB7918468D
:10046400FFF7B6FE0E4ABB7913700CE00C4B1978FB
:10047400F87900230122FFF7C3FE094B1B780133EF
:10048400DAB2074B1A70064B1B781A46BB7907334E
:100494009A42EBDD00BF00BF0837BD4680BD00BFF8
:1004A4007100002080B586B000AF03463A60FB714E
:1004B4000B46BB71184A07F10C0307CA03C31A8021
:1004C400164ABB7913701BE0144B197807F10C0220
:1004D4003B6813441B781A46104B1B7818460123BB
:1004E400834013400D4A12781341DAB2FB7918465F
:1004F400FFF746FF094B1B780133DAB2074B1A703A
:10050400064B1B781A46BB7907339A42DCDD00BFE1
:1005140000BF1837BD4680BDD80700087100002011
:1005240080B500AF0020FFF753FE0120FFF750FE17
:1005340000210020FFF78AFF02230022002101206E
:10054400FFF75EFE0223002201210120FFF758FE7F
:10055400184B1B68174A43F480431360164B1B68FF
:10056400154A43F011031360144B1B68134A43F0FC
:1005740003031360124B1B68114A43F00303136017
:10058400104B1B680F4A23F0030313600E4B1B68C8
:100594000D4A43F0400313600B4B1B680A4A43F0B7
:1005A40080031360094B1B781A4600210020FFF7D3
:1005B40079FFF7E74438024008380140003C014025
:1005C4000C3C0140083C014000E100E070000020C8
:1005D40080B400AF114B1B68104A23F00203136070
:1005E4000F4B1B78092B04D00D4B1B780133DBB266
:1005F40000E009230A4A13700A4B1B68094A43F0B6
:1006040001031360054B1B68044A43F002031360A3
:1006140000BFBD465DF8047B704700BF003C01404D
:1006240070000020143C014080B400AF114B1B68E3
:10063400104A23F0010313600F4B1B78002B04D0E6
:100644000D4B1B78013BDBB200E000230A4A137018
:100654000A4B1B68094A43F002031360054B1B68ED
:10066400044A43F00103136000BFBD465DF8047BF8
:10067400704700BF003C014070000020143C014062
:1006840080B400AFFEE780B400AFFEE780B400AFF3
:10069400FEE780B400AFFEE780B400AFFEE780B4AD
:1006A40000AF00BFBD465DF8047B704780B400AF67
:1006B40000BFBD465DF8047B704780B400AF00BF47
:1006C400BD465DF8047B704780B500AF00F03EF88E
:1006D40000BF80BD80B400AF064BD3F88830054A14
:1006E40043F47003C2F8883000BFBD465DF8047B54
:1006F400704700BF00ED00E0DFF834D00D480E492C
:100704000E4A002302E0D458C4500433C4188C4267
:10071400F9D30B4A0B4C002301E013600432A242CC
:10072400FBD3FFF7D7FF00F025F8FFF7F9FE70477A
:10073400000001200000002054000020EC07000805
:100744005400002078000020FEE7000080B400AFD1
:10075400064B1B781A46064B1B681344044A136065
:1007640000BFBD465DF8047B704700BF5000002009
:100774007400002070B50D4D0D4C641BA4100026B0
:10078400A64209D10B4D0C4C00F018F8641BA410C0
:100794000026A64205D170BD55F8043B98470136A2
:1007A400EEE755F8043B98470136F2E7E407000802
:1007B400E4070008E4070008E8070008F8B500BFEC
:1007C400F8BC08BC9E467047F8B500BFF8BC08BC2E
:0407D4009E46704786
:0C07D8003F306D79725B5F317F7B000069
:0407E400B90100084F
:0407E800950100086F
:1007EC000000024004000240080002400C000240DD
:1007FC001000024014000240180002401C0002408D
:10080C002000024024000240000402400404024084
:10081C00080402400C04024010040240140402407C
:10082C00180402401C04024020040240240402402C
:04083C0001000000B7
:04000005080006FDEC
:00000001FF
