:020000040800F2
:1000000000000120E905000839060008390600084B
:10001000390600083906000839060008000000000B
:100020000000000000000000000000003906000889
:1000300039060008000000003906000839060008EB
:100040003906000839060008390600083906000894
:100050003906000839060008390600083906000884
:100060003906000839060008390600083906000874
:100070003906000839060008390600083906000864
:10008000390600083906000839060008000000009B
:100090000000000000000000000000003906000819
:1000A0003906000839060008390600083906000834
:1000B0003906000839060008390600083906000824
:1000C0003906000839060008390600083906000814
:1000D000390600083906000839060008000000004B
:1000E000390600083906000839060008000000003B
:1000F00000000000000000000000000039060008B9
:10010000000000003906000839060008390600081A
:1001100000000000000000000000000000000000DF
:1001200039060008390600083906000839060008B3
:100130003906000800000000000000000000000078
:100140000000000000000000000000003906000868
:100150003906000839060008390600083906000883
:100160003906000839060008000000000000000001
:10017000000000000000000000000000000000007F
:100180000000000039060008000000000000000028
:040190003906000824
:1001940010B5054C237833B9044B13B10448AFF3BD
:1001A40000800123237010BD000000200000000027
:1001B4002C09000808B5034B1BB103490348AFF3EE
:1001C400008008BD00000000040000202C09000885
:1001D40080B58AB000AF002301220021412000F045
:1001E4002BFA002301220121412000F025FA0023EB
:1001F40001220221412000F01FFA002301220321E1
:10020400412000F019FA002301220421412000F0CA
:1002140013FA002301220521412000F00DFA0023E6
:1002240001220621412000F007FA002301220721C0
:10023400412000F001FA01220021412000F0DEFA01
:1002440001220121412000F0D9FA0122022141209A
:1002540000F0D4FA01220321412000F0CFFA012258
:100264000421412000F0CAFA01220521412000F0B6
:10027400C5FA00220621412000F0C0FA00237B6267
:1002840002E07B6A01337B627B6ACC4A9342F8DDED
:1002940000220021412000F0B1FA01220121412075
:1002A40000F0ACFA01220221412000F0A7FA00225A
:1002B4000321412000F0A2FA00220421412000F091
:1002C4009DFA00220521412000F098FA002206211F
:1002D400412000F093FA00233B6202E03B6A0133C1
:1002E4003B623B6AB54A9342F8DD0122002141207A
:1002F40000F084FA01220121412000F07FFA00225B
:100304000221412000F07AFA01220321412000F069
:1003140075FA01220421412000F070FA002205211F
:10032400412000F06BFA01220621412000F066FA18
:100334000023FB6102E0FB690133FB61FB699F4A17
:100344009342F8DD01220021412000F057FA0122F6
:100354000121412000F052FA01220221412000F043
:100364004DFA01220321412000F048FA0022042121
:10037400412000F043FA00220521412000F03EFA1A
:1003840001220621412000F039FA0023BB6102E07A
:10039400BB690133BB61BB69884A9342F8DD002223
:1003A4000021412000F02AFA01220121412000F01D
:1003B40025FA01220221412000F020FA0022032123
:1003C400412000F01BFA00220421412000F016FA1B
:1003D40001220521412000F011FA012206214120C9
:1003E40000F00CFA00237B6102E07B6901337B613E
:1003F4007B69724A9342F8DD01220021412000F01A
:10040400FDF900220121412000F0F8F90122022126
:10041400412000F0F3F901220321412000F0EEF91C
:1004240000220421412000F0E9F9012205214120A4
:1004340000F0E4F901220621412000F0DFF9002355
:100444003B6102E03B6901333B613B695B4A934298
:10045400F8DD01220021412000F0D0F90022012121
:10046400412000F0CBF901220221412000F0C6F91D
:1004740001220321412000F0C1F90122042141207D
:1004840000F0BCF901220521412000F0B7F9012256
:100494000621412000F0B2F90023FB6002E0FB6872
:1004A4000133FB60FB68454A9342F8DD01220021D9
:1004B400412000F0A3F901220121412000F09EF91E
:1004C40001220221412000F099F900220321412058
:1004D40000F094F900220421412000F08FF9002259
:1004E4000521412000F08AF900220621412000F074
:1004F40085F90023BB6002E0BB680133BB60BB68C5
:100504002E4A9342F8DD01220021412000F076F9C1
:1005140001220121412000F071F901220221412030
:1005240000F06CF901220321412000F067F9012257
:100534000421412000F062F901220521412000F04C
:100544005DF901220621412000F058F900237B6067
:1005540002E07B6801337B607B68184A9342F8DDD4
:1005640001220021412000F049F90122012141200A
:1005740000F044F901220221412000F03FF9012258
:100584000321412000F03AF900220421412000F027
:1005940035F901220521412000F030F9012206211C
:1005A400412000F02BF900233B6002E03B6801335B
:1005B4003B603B68014A9342F8DD3CE63F420F0052
:1005C40080B400AF064BD3F88830054A43F4700377
:1005D400C2F8883000BFBD465DF8047B704700BF99
:1005E40000ED00E0DFF834D00D480E490E4A002338
:1005F40002E0D458C4500433C4188C42F9D30B4AD3
:100604000B4C002301E013600432A242FBD3FFF73A
:10061400D7FF00F065F9FFF7DBFD7047000001200C
:1006240000000020000000204C0900080000002009
:100634001C000020FEE7000080B485B000AFB96064
:100644007A603B600346FB73FB7B412B02D0422B59
:1006540064D0C7E0664B1B6B654A43F00103136328
:100664007B68032B3BD801A252F823F081060008D3
:100674009B060008B3060008CB0600085D4B1B6808
:10068400BA685200032101FA02F2D2431146594AD0
:100694000B40136023E0574B1B68BA6852000121DA
:1006A40001FA02F21146534A0B43136017E0514B0F
:1006B4001B68BA685200022101FA02F211464D4A3F
:1006C4000B4313600BE04B4B1B68BA6852000321C9
:1006D40001FA02F21146474A0B43136000BF3B681C
:1006E400002B03D03B68012B0CD07BE0414B5B68B3
:1006F4000121BA6801FA02F2D24311463D4A0B4085
:1007040053600AE03B4B5B680121BA6801FA02F2CC
:100714001146384A0B43536000BF63E0344B1B6BF4
:10072400334A43F0020313637B68032B3BD801A2D3
:1007340052F823F049070008630700087B07000804
:10074400930700082C4B1B68BA685200032101FA76
:1007540002F2D2431146284A0B40136023E0264B91
:100764001B68BA685200012101FA02F21146224ABA
:100774000B43136017E0204B1B68BA685200022138
:1007840001FA02F211461C4A0B4313600BE01A4BA8
:100794001B68BA685200032101FA02F21146164A94
:1007A4000B43136000BF3B68002B03D03B68012B55
:1007B4000CD016E0104B5B680121BA6801FA02F212
:1007C400D24311460C4A0B4053600AE00A4B5B6863
:1007D4000121BA6801FA02F21146074A0B43536039
:1007E40000BF00BF00BF1437BD465DF8047B7047EF
:1007F40000380240000002400004024080B487B088
:1008040000AF0346B9607A60FB73FB7B412B02D0D7
:10081400422B2DD059E0304B1B68BA68520001219D
:1008240001FA02F21A40BB685B0022FA03F3012BBF
:100834001BD17B68002B0AD0274B5B690121BA6866
:1008440001FA02F21146244A0B4353610AE0224B97
:100854005B690121BA6801FA02F2D24311461E4AC9
:100864000B4053610023FB752FE00123FB752CE043
:100874001A4B1B68BA685200012101FA02F21A40AD
:10088400BB685B0022FA03F3012B1BD17B68002BAE
:100894000AD0124B5B690121BA6801FA02F21146CF
:1008A4000E4A0B4353610AE00C4B5B690121BA68A1
:1008B40001FA02F2D2431146084A0B405361002365
:1008C400FB7501E00123FB7500BFFB7D18461C3757
:1008D400BD465DF8047B70470000024000040240FE
:1008E40070B50D4D0D4C641BA4100026A64209D111
:1008F4000B4D0C4C00F018F8641BA4100026A64203
:1009040005D170BD55F8043B98470136EEE755F81C
:10091400043B98470136F2E74409000844090008FB
:100924004409000848090008F8B500BFF8BC08BC31
:100934009E467047F8B500BFF8BC08BC9E46704799
:04094400B9010008ED
:04094800950100080D
:04000005080005E901
:00000001FF
