:020000040800F2
:1000000000000120C50200081503000815030008C0
:100010001503000815030008150300080000000080
:1000200000000000000000000000000015030008B0
:100030001503000800000000150300081503000860
:100040001503000815030008150300081503000830
:100050001503000815030008150300081503000820
:100060001503000815030008150300081503000810
:100070001503000815030008150300081503000800
:100080001503000815030008150300080000000010
:100090000000000000000000000000001503000840
:1000A00015030008150300081503000815030008D0
:1000B00015030008150300081503000815030008C0
:1000C00015030008150300081503000815030008B0
:1000D00015030008150300081503000800000000C0
:1000E00015030008150300081503000800000000B0
:1000F00000000000000000000000000015030008E0
:10010000000000001503000815030008150300088F
:1001100000000000000000000000000000000000DF
:10012000150300081503000815030008150300084F
:10013000150300080000000000000000000000009F
:10014000000000000000000000000000150300088F
:10015000150300081503000815030008150300081F
:10016000150300081503000800000000000000004F
:10017000000000000000000000000000000000007F
:10018000000000001503000800000000000000004F
:04019000150300084B
:1001940010B5054C237833B9044B13B10448AFF3BD
:1001A40000800123237010BD000000200000000027
:1001B4006003000808B5034B1BB103490348AFF3C0
:1001C400008008BD00000000040000206003000857
:1001D40080B483B000AF01233B602D4B1B6B2C4AD2
:1001E40043F0020313632B4B1B682A4A23F0C0031A
:1001F4001360284B1B68274A43F4A8431360254B1C
:100204005B68244A23F0E0035360224BDB68214AF5
:1002140043F04003D3603B685A4203F0070302F003
:10022400070258BF53423B601A4B1B6903F0080393
:10023400002B22D1174B5B69164A43F45E6353616A
:10024400144B5B693A6852011146124A0B405361E0
:1002540000BF104B1B6903F00803002BF9D00023E7
:100264007B6002E07B6801337B607B680A4A9342CF
:10027400F8DD3B6801333B60CDE700237B6002E09F
:100284007B6801337B607B68034A9342F8DDC2E7F5
:1002940000380240000402409F86010080B400AF91
:1002A400064BD3F88830054A43F47003C2F888300B
:1002B40000BFBD465DF8047B704700BF00ED00E061
:1002C400DFF834D00D480E490E4A002302E0D4581A
:1002D400C4500433C4188C42F9D30B4A0B4C00238A
:1002E40001E013600432A242FBD3FFF7D7FF00F012
:1002F40011F8FFF76DFF7047000001200000002097
:100304000000002080030008000000201C000020E2
:10031400FEE7000070B50D4D0D4C641BA4100026C3
:10032400A64209D10B4D0C4C00F018F8641BA41024
:100334000026A64205D170BD55F8043B9847013606
:10034400EEE755F8043B98470136F2E778030008D6
:1003540078030008780300087C030008F8B500BFA0
:10036400F8BC08BC9E467047F8B500BFF8BC08BC92
:040374009E467047EA
:04037800B9010008BF
:04037C0095010008DF
:04000005080002C528
:00000001FF
