:020000040800F2
:1000000000000120C50700081508000815080008B1
:100010001508000815080008150800080000000071
:1000200000000000000000000000000015080008AB
:100030001508000800000000150800081508000851
:10004000150800081508000815080008150800081C
:10005000150800081508000815080008150800080C
:1000600015080008150800081508000815080008FC
:1000700015080008150800081508000815080008EC
:100080001508000815080008150800080000000001
:10009000000000000000000000000000150800083B
:1000A00015080008150800081508000815080008BC
:1000B00015080008150800081508000815080008AC
:1000C000150800081508000815080008150800089C
:1000D00015080008150800081508000800000000B1
:1000E00015080008150800081508000800000000A1
:1000F00000000000000000000000000015080008DB
:100100000000000015080008150800081508000880
:1001100000000000000000000000000000000000DF
:10012000150800081508000815080008150800083B
:10013000150800080000000000000000000000009A
:10014000000000000000000000000000150800088A
:10015000150800081508000815080008150800080B
:100160001508000815080008000000000000000045
:10017000000000000000000000000000000000007F
:10018000000000001508000800000000000000004A
:040190001508000846
:1001940010B5054C237833B9044B13B10448AFF3BD
:1001A40000800123237010BD0C000020000000001B
:1001B4006008000808B5034B1BB103490348AFF3BB
:1001C400008008BD00000000100000206008000846
:1001D40080B483B000AF0346FB71FB79412B02D09E
:1001E400422B07D00DE00A4B1B6B094A43F0010375
:1001F400136306E0064B1B6B054A43F002031363CB
:1002040000BF00BF0C37BD465DF8047B704700BFDC
:100214000038024090B482B000AF0446084611464C
:100224001A462346FB710346BB710B467B7113468A
:100234003B71FB79412B02D0422B49D091E04B4BCF
:100244001B68BA795200032101FA02F2D243114623
:10025400464A0B401360454B1B687979BA795200C2
:1002640001FA02F21146414A0B4313603F4B5B68AB
:10027400BA79012101FA02F2D24311463B4A0B40FA
:1002840053603A4B5B683A7902F00101BA7901FA9A
:1002940002F21146354A0B435360344BDB68BA799A
:1002A4005200032101FA02F2D24311462F4A0B40B5
:1002B400D3602E4BDB683A79521002F00301BA790D
:1002C400520001FA02F21146284A0B43D36048E077
:1002D400274B1B68BA795200032101FA02F2D24378
:1002E4001146234A0B401360214B1B687979BA7974
:1002F400520001FA02F211461D4A0B4313601C4BD3
:100304005B68BA79012101FA02F2D2431146184A14
:100314000B405360164B5B683A7902F00101BA79DD
:1003240001FA02F21146124A0B435360104BDB6888
:10033400BA795200032101FA02F2D24311460C4A5F
:100344000B40D3600A4BDB683A79521002F0030188
:10035400BA79520001FA02F21146054A0B43D360FE
:1003640000BF00BF0837BD4690BC70470000024084
:100374000004024080B485B000AF0346FB710B4615
:10038400BB7113467B71FB79412B02D0422B2DD0DC
:1003940059E0324B1B68BA795200032101FA02F288
:1003A4001A40BB795B0022FA03F3012B1BD17B7942
:1003B400002B0AD0294B5B69BA79012101FA02F2B8
:1003C4001146264A0B4353610AE0244B5B69BA7910
:1003D400012101FA02F2D2431146204A0B40536133
:1003E4000023FB7332E00123FB732FE01C4B1B68DB
:1003F400BA795200032101FA02F21A40BB795B0078
:1004040022FA03F3012B1BD17B79002B0AD0144B66
:100414005B69BA79012101FA02F21146104A0B43D1
:1004240053610AE00E4B5B69BA79012101FA02F2C9
:10043400D24311460A4A0B4053610023FB7305E083
:100444000123FB7302E00123FB7300BFFB7B18460F
:100454001437BD465DF8047B704700BF00000240BE
:100464000004024080B485B000AF03460A46FB7125
:100474001346BB710023FB73FB79412B02D0422B43
:100484000CD017E00F4B1B69BA79012101FA02F273
:100494001A40BB7922FA03F3FB730BE00A4B1B6986
:1004A400BA79012101FA02F21A40BB7922FA03F364
:1004B400FB7300BFFB7B18461437BD465DF8047B15
:1004C400704700BF000002400004024080B485B0C1
:1004D40000AF78600023FB6002E0FB680133FB603F
:1004E4007B684FF47A7202FB03F31A46FB6893426B
:1004F400F3D300BF00BF1437BD465DF8047B7047DB
:1005040080B582B000AF4220FFF762FE0023FB718A
:1005140008E0F979022300224220FFF77BFEFB79F1
:100524000133FB71FB79032BF3D90523BB710EE077
:10053400B979002301224220FFF76CFEBB79012226
:1005440019464220FFF716FFBB790133BB71BB7913
:10055400072BEDD900BF00BF0837BD4680BD0000A2
:1005640080B582B000AF284B1B78002B47D1052300
:100574003B6041E03B68DBB2002219464220FFF7B2
:10058400F9FE00237B602AE07B68DBB21946422037
:10059400FFF768FF0346002B1ED11E20FFF796FFCE
:1005A4007B68DBB219464220FFF75CFF0346002B51
:1005B40012D1154B01221A707B68C3F103023B6808
:1005C400591F124813465B00134403440B441A7822
:1005D4000F4B1A7000F0CBF87B6801337B607B68AB
:1005E400032BD1DD3B68DBB2012219464220FFF721
:1005F400C1FE3B6801333B603B68072BBADD00BF9B
:100604000837BD4680BD00BF29000020000000203F
:100614002800002080B400AF044B00221A70044B61
:100624001B781846BD465DF8047B704729000020FE
:100634002800002080B582B000AF03460A46FB7153
:100644001346BB71FB791846FFF7C2FD0E4ABB790E
:1006540013700CE00C4B1978F87900230122FFF792
:10066400D9FD094B1B780133DAB2074B1A70064BDC
:100674001B781A46BB7907339A42EBDD00BF00BFF3
:100684000837BD4680BD00BF2A00002080B586B073
:1006940000AF03463A60FB710B46BB71184A07F181
:1006A4000C0307CA03C31A80164ABB7913701BE0F4
:1006B400144B197807F10C023B6813441B781A4653
:1006C400104B1B7818460123834013400D4A1278BF
:1006D4001341DAB2FB791846FFF74CFE094B1B783D
:1006E4000133DAB2074B1A70064B1B781A46BB79F2
:1006F40007339A42DCDD00BF00BF1837BD4680BD1A
:10070400780800082A00002080B582B000AF0346B4
:100714000A46FB711346BB710E4ABB7913700CE099
:100724000C4B1978FB7900221846FFF723FE094B7E
:100734001B780133DAB2074B1A70064B1B781A4642
:10074400BB7907339A42EBDD00BF00BF0837BD46D3
:1007540080BD00BF2A00002080B500AF00214120E9
:10076400FFF768FFFFF7CCFEFFF7FAFEFCE780B562
:1007740000AFFFF74FFF0346092B08D8FFF74AFFE6
:1007840003461A4600214120FFF780FF03E00021C1
:100794004120FFF7B9FF00BF80BD000080B400AF67
:1007A400064BD3F88830054A43F47003C2F8883006
:1007B40000BFBD465DF8047B704700BF00ED00E05C
:1007C400DFF834D00D480E490E4A002302E0D45815
:1007D400C4500433C4188C42F9D30B4A0B4C002385
:1007E40001E013600432A242FBD3FFF7D7FF00F00D
:1007F40011F8FFF7B1FF704700000120000000204E
:100804000C0000208C0800080C0000202C000020A4
:10081400FEE7000070B50D4D0D4C641BA4100026BE
:10082400A64209D10B4D0C4C00F018F8641BA4101F
:100834000026A64205D170BD55F8043B9847013601
:10084400EEE755F8043B98470136F2E784080008C0
:10085400840800088408000888080008F8B500BF68
:10086400F8BC08BC9E467047F8B500BFF8BC08BC8D
:040874009E467047E5
:0C0878003F306D79725B5F317F7B0000C8
:04088400B9010008AE
:0408880095010008CE
:0C088C000102030405060708092A0023E6
:04000005080007C523
:00000001FF
