:020000040800F2
:100000000000012091070008E1070008E10700084F
:10001000E1070008E1070008E10700080000000010
:10002000000000000000000000000000E1070008E0
:10003000E107000800000000E1070008E1070008F0
:10004000E1070008E1070008E1070008E1070008F0
:10005000E1070008E1070008E1070008E1070008E0
:10006000E1070008E1070008E1070008E1070008D0
:10007000E1070008E1070008E1070008E1070008C0
:10008000E1070008E1070008E107000800000000A0
:10009000000000000000000000000000E107000870
:1000A000E1070008E1070008E1070008E107000890
:1000B000E1070008E1070008E1070008E107000880
:1000C000E1070008E1070008E1070008E107000870
:1000D000E1070008E1070008E10700080000000050
:1000E000E1070008E1070008E10700080000000040
:1000F000000000000000000000000000E107000810
:1001000000000000E1070008E1070008E10700081F
:1001100000000000000000000000000000000000DF
:10012000E1070008E1070008E1070008E10700080F
:10013000E1070008000000000000000000000000CF
:10014000000000000000000000000000E1070008BF
:10015000E1070008E1070008E1070008E1070008DF
:10016000E1070008E10700080000000000000000AF
:10017000000000000000000000000000000000007F
:1001800000000000E107000800000000000000007F
:04019000E10700087B
:1001940010B5054C237833B9044B13B10448AFF3BD
:1001A40000800123237010BD5C00002000000000CB
:1001B4002C08000808B5034B1BB103490348AFF3EF
:1001C400008008BD00000000600000202C0800082A
:1001D40080B483B000AF0346FB71084B1B68FA7907
:1001E400012101FA02F21146044A0B43136000BFD5
:1001F4000C37BD465DF8047B704700BF30380240C1
:1002040090B482B000AF0446084611461A4623460D
:10021400FB710346BB710B467B7113463B71FA7944
:10022400564913469B001344DB000B441B681968B2
:10023400BB795B00032202FA03F3DB431C46FA7921
:100244004E4813469B001344DB0003441B6801EA39
:1002540004021A60FA79494913469B001344DB00EF
:100264000B441B6819687A79BB795B0002FA03F3C3
:100274001C46FA79414813469B001344DB000344AF
:100284001B6841EA04021A60FA793C4913469B0050
:100294001344DB000B4404331B681968BB79012247
:1002A40002FA03F3DB431C46FA79344813469B00F5
:1002B4001344DB00034404331B6801EA04021A609C
:1002C400FA792E4913469B001344DB000B44043394
:1002D4001B6819683B7903F00102BB7902FA03F346
:1002E4001C46FA79254813469B001344DB0003445B
:1002F40004331B6841EA04021A60FA791F49134661
:100304009B001344DB000B440C331B681968BB7956
:100314005B00032202FA03F3DB431C46FA79174815
:1003240013469B001344DB0003440C331B6801EAAF
:1003340004021A60FA79114913469B001344DB0046
:100344000B440C331B6819683B795B1003F0030200
:10035400BB795B0002FA03F31C46FA79074813469B
:100364009B001344DB0003440C331B6841EA040282
:100374001A6000BF0837BD4690BC704700000020DB
:1003840090B484B000AF0346FB710B46BB711346B7
:100394007B71FA792C4913469B001344DB000B4410
:1003A4001B681B68BA795200032101FA02F21A4051
:1003B400BB795B0022FA03F3012B3DD17B79002B3F
:1003C4001BD0FA79204913469B001344DB000B44ED
:1003D40014331B681968BB79012202FA03F31C4623
:1003E400FA79194813469B001344DB000344143381
:1003F4001B6841EA04021A601BE0FA7912491346A9
:100404009B001344DB000B4414331B681968BB794D
:10041400012202FA03F3DB431C46FA790A48134625
:100424009B001344DB00034414331B6801EA0402F9
:100434001A600023FB7301E00123FB73FB7B184666
:100444001037BD4690BC70470000002080B485B0D2
:1004540000AF03460A46FB711346BB710023FB73CE
:10046400FA790C4913469B001344DB000B44103308
:100474001B681B68BA79012101FA02F21A40BB79A0
:1004840022FA03F3FB73FB7B18461437BD465DF871
:10049400047B70470000002080B485B000AF786012
:1004A4000023FB6002E0FB680133FB607B684FF4D0
:1004B4007A7202FB03F31A46FB689342F3D300BF3C
:1004C40000BF1437BD465DF8047B704780B582B029
:1004D40000AF0120FFF77CFE0023FB7108E0F979EF
:1004E400022300220120FFF78BFEFB790133FB710D
:1004F400FB79032BF3D90523BB710EE0B9790023F3
:1005040001220120FFF77CFEBB790122194601205C
:10051400FFF736FFBB790133BB71BB79072BEDD9EC
:1005240000BF00BF0837BD4680BD000080B582B063
:1005340000AF284B1B78002B47D105233B6041E0DB
:100544003B68DBB2002219460120FFF719FF0023A4
:100554007B602AE07B68DBB219460120FFF776FF57
:100564000346002B1ED11E20FFF796FF7B68DBB2EB
:1005740019460120FFF76AFF0346002B12D1154BE1
:1005840001221A707B68C3F103023B68591F1248A9
:1005940013465B00134403440B441A780F4B1A7040
:1005A40000F0CBF87B6801337B607B68032BD1DDE3
:1005B4003B68DBB2012219460120FFF7E1FE3B68EC
:1005C40001333B603B68072BBADD00BF0837BD46EB
:1005D40080BD00BF7900002050000020780000207A
:1005E40080B400AF044B00221A70044B1B781846E9
:1005F400BD465DF8047B7047790000207800002038
:1006040080B582B000AF03460A46FB711346BB7146
:10061400FB791846FFF7DCFD0E4ABB7913700CE03A
:100624000C4B1978F87900230122FFF7E9FD094BF7
:100634001B780133DAB2074B1A70064B1B781A4643
:10064400BB7907339A42EBDD00BF00BF0837BD46D4
:1006540080BD00BF7A00002080B586B000AF03469D
:100664003A60FB710B46BB71184A07F10C0307CAC9
:1006740003C31A80164ABB7913701BE0144B197814
:1006840007F10C023B6813441B781A46104B1B7885
:1006940018460123834013400D4A12781341DAB2FD
:1006A400FB791846FFF76CFE094B1B780133DAB26D
:1006B400074B1A70064B1B781A46BB7907339A42CC
:1006C400DCDD00BF00BF1837BD4680BD440800080C
:1006D4007A00002080B582B000AF03460A46FB7161
:1006E4001346BB710E4ABB7913700CE00C4B19789E
:1006F400FB7900221846FFF743FE094B1B780133B0
:10070400DAB2074B1A70064B1B781A46BB790733CB
:100714009A42EBDD00BF00BF0837BD4680BD00BF75
:100724007A00002080B500AF00210020FFF768FFA9
:10073400FFF7CCFEFFF7FAFEFCE780B500AFFFF74A
:100744004FFF0346092B08D8FFF74AFF03461A4612
:1007540000210020FFF780FF03E000210020FFF7C5
:10076400B9FF00BF80BD000080B400AF064BD3F8D2
:100774008830054A43F47003C2F8883000BFBD4690
:100784005DF8047B704700BF00ED00E0DFF834D073
:100794000D480E490E4A002302E0D458C4500433D5
:1007A400C4188C42F9D30B4A0B4C002301E01360AC
:1007B4000432A242FBD3FFF7D7FF00F011F8FFF792
:1007C400B1FF704700000120000000205C00002001
:1007D400580800085C0000207C000020FEE70000B0
:1007E40070B50D4D0D4C641BA4100026A64209D112
:1007F4000B4D0C4C00F018F8641BA4100026A64204
:1008040005D170BD55F8043B98470136EEE755F81D
:10081400043B98470136F2E75008000850080008E6
:100824005008000854080008F8B500BFF8BC08BC1C
:100834009E467047F8B500BFF8BC08BC9E4670479A
:0C0844003F306D79725B5F317F7B0000FC
:04085000B9010008E2
:040854009501000802
:100858000000024004000240080002400C00024070
:100868001000024014000240180002401C00024020
:100878002000024024000240000402400404024018
:10088800080402400C040240100402401404024010
:10089800180402401C0402402004024024040240C0
:0C08A8000102030405060708092A0023CA
:040000050800079157
:00000001FF
