:020000040800F2
:1000000000000120ED0900087309000879090008C3
:100010007F090008850900088B090008000000001E
:10002000000000000000000000000000910900082E
:100030009F09000800000000AD090008BB09000886
:100040003D0A00083D0A00083D0A00083D0A000874
:100050003D0A00083D0A00083D0A00083D0A000864
:100060003D0A00083D0A00083D0A0008490600084C
:100070003D0A00083D0A00083D0A00083D0A000844
:100080003D0A00083D0A00083D0A00080000000083
:100090000000000000000000000000003D0A000811
:1000A0003D0A00083D0A00083D0A00083D0A000814
:1000B0003D0A00083D0A00083D0A00083D0A000804
:1000C0003D0A00083D0A00083D0A00083D0A0008F4
:1000D0003D0A00083D0A00083D0A00080000000033
:1000E0003D0A00083D0A00083D0A00080000000023
:1000F0000000000000000000000000003D0A0008B1
:10010000000000003D0A00083D0A00083D0A000802
:1001100000000000000000000000000000000000DF
:10012000290600083D0A00083D0A00083D0A0008AB
:100130003D0A000800000000000000000000000070
:100140000000000000000000000000003D0A000860
:100150003D0A00083D0A00083D0A00083D0A000863
:100160003D0A00083D0A00080000000000000000F1
:10017000000000000000000000000000000000007F
:10018000000000003D0A0008000000000000000020
:040190003D0A00081C
:1001940010B5054C237833B9044B13B10448AFF3BD
:1001A40000800123237010BDA40000200000000083
:1001B400B00A000808B5034B1BB103490348AFF369
:1001C400008008BD00000000A8000020B00A00085C
:1001D40080B582B000AF0346FB71FB79002B02D0DF
:1001E400012B08D00FE0162000F03CFA254B4FF00D
:1001F40080721A6007E0152000F034FA224B4FF4A5
:1002040000621A6000BFFA79204913469B00134428
:10021400DB000B4410331B681968FA791B4813463A
:100224009B001344DB00034410331B6821F00102DC
:100234001A6000BFFA79154913469B001344DB008A
:100244000B4410331B681B6803F00103002BF1D12E
:10025400FA790E4913469B001344DB000B44103318
:100264001B681968FA79094813469B001344DB009C
:10027400034410331B6841F010021A6000BF0837B2
:10028400BD4680BD04E100E000E100E00000002084
:1002940090B484B000AFBA607B600346FB730B4636
:1002A400BB73FA7BB64913469B001344DB000B4433
:1002B40010331B681968FA7BB14813469B0013443A
:1002C400DB00034410331B6821F0C0021A60FA7B80
:1002D400AB4913469B001344DB000B4410331B68EB
:1002E400196897F820309B011C46FA7BA4481346F2
:1002F4009B001344DB00034410331B6841EA0402EF
:100304001A60FA7B9E4913469B001344DB000B449E
:1003140010331B681968FA7B994813469B001344F1
:10032400DB00034410331B6841F400721A60FA7B4B
:10033400934913469B001344DB000B4410331B68A2
:100344001968FA7B8E4813469B001344DB00034470
:1003540010331B6841F480621A60FA7B88491346A3
:100364009B001344DB000B4410331B681968FA7BB1
:10037400834813469B001344DB00034410331B687B
:1003840021F4C0521A60FA7B7D4913469B00134442
:10039400DB000B4410331B681968FA7B784813465A
:1003A4009B001344DB00034410331B6821F4C04258
:1003B4001A60FA7B724913469B001344DB000B441A
:1003C40010331B6819683B7FDB021C46FA7B6C48C0
:1003D40013469B001344DB00034410331B6841EABB
:1003E40004021A60FA7B664913469B001344DB003F
:1003F4000B4410331B6819683B7F5B031C46FA7B74
:100404005F4813469B001344DB00034410331B680E
:1004140041EA04021A60FA7B594913469B001344CB
:10042400DB000B4410331B681968FA7B54481346ED
:100434009B001344DB00034410331B6821F4403257
:100444001A60FA7B4E4913469B001344DB000B44AD
:1004540010331B68196897F828301B041C46FA7B74
:10046400474813469B001344DB00034410331B68C6
:1004740041EA04021A60FA7B414913469B00134483
:10048400DB000B4410331B681968FA7B3C481346A5
:100494009B001344DB00034410331B6821F4C002A7
:1004A4001A60FA7B364913469B001344DB000B4465
:1004B40010331B68196897F824305B051C46FA7BD7
:1004C4002F4813469B001344DB00034410331B687E
:1004D40041EA04021A60FA7B294913469B0013443B
:1004E400DB000B4414331B68BA691A60FA7B244995
:1004F40013469B001344DB000B4418331B68BA6893
:100504001A60FA7B1E4913469B001344DB000B441C
:100514001C331B687A681A60FA7B194913469B00DE
:100524001344DB000B4424331B681968FA7B14481A
:1005340013469B001344DB00034424331B6821F05F
:1005440003021A60FA7B0E4913469B001344DB0036
:100554000B4424331B68186897F82C10FA7B084C5A
:1005640013469B001344DB00234424331B6840EAF6
:1005740001021A6000BF1037BD4690BC704700BF2F
:100584000000002080B483B000AF0346FB71FA7909
:10059400234913469B001344DB000B4408331B68B8
:1005A4001968FA791E4813469B001344DB00034480
:1005B40008331B6841F001021A60FA79184913469E
:1005C4009B001344DB000B4408331B681968FA7959
:1005D400134813469B001344DB00034408331B6891
:1005E40041F03C021A60FA790D4913469B0013440A
:1005F400DB000B4410331B681968FA79084813466A
:100604009B001344DB00034410331B6841F00102D8
:100614001A6000BF0C37BD465DF8047B704700BF0D
:100624000000002080B500AF00F098F9044B9B68EF
:100634001A68034B9B6842F020021A6000BF80BD19
:100644000000002080B500AF00F088F9044B1B6B5C
:100654001A68034B1B6B42F020021A6000BF80BD76
:100664000000002080B483B000AF0346FB71084B48
:100674001B68FA79012101FA02F21146044A0B437C
:10068400136000BF0C37BD465DF8047B704700BFA4
:100694003038024090B482B000AF04460846114698
:1006A4001A462346FB710346BB710B467B71134606
:1006B4003B71FA79564913469B001344DB000B4403
:1006C4001B681968BB795B00032202FA03F3DB435E
:1006D4001C46FA794E4813469B001344DB0003443E
:1006E4001B6801EA04021A60FA79494913469B001F
:1006F4001344DB000B441B6819687A79BB795B00EF
:1007040002FA03F31C46FA79414813469B0013444A
:10071400DB0003441B6841EA04021A60FA793C498D
:1007240013469B001344DB000B4404331B68196815
:10073400BB79012202FA03F3DB431C46FA793448FD
:1007440013469B001344DB00034404331B6801EA93
:1007540004021A60FA792E4913469B001344DB0005
:100764000B4404331B6819683B7903F00102BB791D
:1007740002FA03F31C46FA79254813469B001344F6
:10078400DB00034404331B6841EA04021A60FA796B
:100794001F4913469B001344DB000B440C331B68B6
:1007A4001968BB795B00032202FA03F3DB431C469E
:1007B400FA79174813469B001344DB0003440C33B7
:1007C4001B6801EA04021A60FA79114913469B0076
:1007D4001344DB000B440C331B6819683B795B1032
:1007E40003F00302BB795B0002FA03F31C46FA79B7
:1007F400074813469B001344DB0003440C331B6877
:1008040041EA04021A6000BF0837BD4690BC704735
:100814005000002090B484B000AF0346FB710B4637
:10082400BB7113467B71FA792C4913469B00134420
:10083400DB000B441B681B68BA795200032101FAE0
:1008440002F21A40BB795B0022FA03F3012B3DD17B
:100854007B79002B1BD0FA79204913469B00134463
:10086400DB000B4414331B681968BB79012202FABC
:1008740003F31C46FA79194813469B001344DB0022
:10088400034414331B6841EA04021A601BE0FA793A
:10089400124913469B001344DB000B4414331B68BA
:1008A4001968BB79012202FA03F3DB431C46FA7987
:1008B4000A4813469B001344DB00034414331B68AB
:1008C40001EA04021A600023FB7301E00123FB73B5
:1008D400FB7B18461037BD4690BC70475000002083
:1008E40080B588B006AF0020FFF7BCFE00230122CC
:1008F40000210020FFF7CEFE00237B6000237B60F5
:100904000BE07B680133642202FB03F211497B682C
:1009140041F823207B6801337B607B68632BF0D92B
:100924000020FFF755FC01230593032304930023C0
:100934000393022302930223019364230093064B3F
:10094400044A00210020FFF7A3FC0020FFF71AFE51
:10095400FEE700BF50020020C000002080B500AFB9
:10096400012200210020FFF755FF00BF80BD80B4A5
:1009740000AFFEE780B400AFFEE780B400AFFEE74F
:1009840080B400AFFEE780B400AFFEE780B400AFF0
:1009940000BFBD465DF8047B704780B400AF00BF64
:1009A400BD465DF8047B704780B400AF00BFBD4610
:1009B4005DF8047B704780B500AF00F03FF800BFDE
:1009C40080BD000080B400AF064BD3F88830054AE0
:1009D40043F47003C2F8883000BFBD465DF8047B61
:1009E400704700BF00ED00E0DFF834D00D480E4939
:1009F4000E4A002302E0D458C4500433C4188C4275
:100A0400F9D30B4A0B4C002301E013600432A242D9
:100A1400FBD3FFF7D7FF00F025F8FFF761FF70471E
:100A24000000012000000020A4000020D00A0008DB
:100A3400A4000020E4030020FEE7000080B400AF1F
:100A4400064B1B781A46064B1B681344044A136072
:100A540000BFBD465DF8047B704700BFA0000020C6
:100A6400E003002070B50D4D0D4C641BA41000264E
:100A7400A64209D10B4D0C4C00F018F8641BA410CD
:100A84000026A64205D170BD55F8043B98470136AF
:100A9400EEE755F8043B98470136F2E7C80A000828
:100AA400C80A0008C80A0008CC0A0008F8B500BF44
:100AB400F8BC08BC9E467047F8B500BFF8BC08BC3B
:040AC4009E46704793
:040AC800B901000868
:040ACC009501000888
:100AD0000064024004640240086402400C64024066
:100AE0001064024014640240186402401C64024016
:100AF000206402402464024000600240046002401E
:100B0000086002400C600240106002401460024025
:100B1000186002401C6002402060024024600240D5
:100B20000000024004000240080002400C000240A5
:100B30001000024014000240180002401C00024055
:100B4000200002402400024000040240040402404D
:100B5000080402400C040240100402401404024045
:100B6000180402401C0402402004024024040240F5
:040B70000100000080
:04000005080009EDF9
:00000001FF
