:020000040800F2
:1000000000000120F1080008770800087D080008BA
:1000100083080008890800088F0800080000000015
:10002000000000000000000000000000950800082B
:10003000A308000800000000B1080008BF0800087D
:100040004109000841090008410900084109000868
:100050004109000841090008410900084109000858
:100060004109000841090008410900085505000838
:100070004109000841090008410900084109000838
:10008000410900084109000841090008000000007A
:10009000000000000000000000000000410900080E
:1000A0004109000841090008410900084109000808
:1000B00041090008410900084109000841090008F8
:1000C00041090008410900084109000841090008E8
:1000D000410900084109000841090008000000002A
:1000E000410900084109000841090008000000001A
:1000F00000000000000000000000000041090008AE
:1001000000000000410900084109000841090008F9
:1001100000000000000000000000000000000000DF
:100120003505000841090008410900084109000897
:10013000410900080000000000000000000000006D
:10014000000000000000000000000000410900085D
:100150004109000841090008410900084109000857
:1001600041090008410900080000000000000000EB
:10017000000000000000000000000000000000007F
:10018000000000004109000800000000000000001D
:040190004109000819
:1001940010B5054C237833B9044B13B10448AFF3BD
:1001A40000800123237010BDA40000200000000083
:1001B400B409000808B5034B1BB103490348AFF366
:1001C400008008BD00000000A8000020B409000859
:1001D40080B582B000AF0346FB71FB79002B02D0DF
:1001E400012B43D04AE0162000F0C2F9FA792549E0
:1001F40013469B001344DB000B4410331B6819683F
:10020400FA79204813469B001344DB00034410335F
:100214001B6821F001021A6000BFFA7919491346DC
:100224009B001344DB000B4410331B681B6803F072
:100234000103002BF1D1144B4FF080721A60FA794C
:10024400104913469B001344DB000B4410331B6816
:100254001968FA790B4813469B001344DB000344E6
:1002640010331B6841F010021A6007E0152000F0FB
:100274007FF9064B4FF400621A6000BF00BF0837D5
:10028400BD4680BD0000002004E100E000E100E084
:1002940090B484B000AFB9607A603B600346FB73EE
:1002A400FA7B7A4913469B001344DB000B4410335A
:1002B4001B681968FA7B754813469B001344DB00DE
:1002C400034410331B6821F0C0021A60FA7B6F49A3
:1002D40013469B001344DB000B4410331B6818685F
:1002E4003B6A9901FA7B694C13469B001344DB007B
:1002F400234410331B6840EA01021A60FA7B634905
:1003040013469B001344DB000B4410331B6819682D
:10031400FA7B5E4813469B001344DB00034410330E
:100324001B6841F400721A60FA7B584913469B001B
:100334001344DB000B4410331B681968FA7B5348E1
:1003440013469B001344DB00034410331B6841F441
:1003540080621A60FA7B4D4913469B001344DB000C
:100364000B4410331B681868FB69D902FA7B474CAD
:1003740013469B001344DB00234410331B6840EAFC
:1003840001021A60FA7B414913469B001344DB00C7
:100394000B4410331B681868FB695903FA7B3B4C08
:1003A40013469B001344DB00234410331B6840EACC
:1003B40001021A60FA7B354913469B001344DB00A3
:1003C4000B4410331B681968FA7B304813469B00B2
:1003D4001344DB00034410331B6841F440321A60B9
:1003E400FA7B2A4913469B001344DB000B44103369
:1003F4001B6818687B6A5B05D943FA7B234C134658
:100404009B001344DB00234410331B6800EA010201
:100414001A60FA7B1D4913469B001344DB000B440E
:1004240014331B68BA691A60FA7B184913469B0097
:100434001344DB000B4418331B687A681A60FA7B98
:10044400124913469B001344DB000B441C331B6806
:100454003A681A60FA7B0D4913469B001344DB008B
:100464000B4424331B681968FA7B084813469B0025
:100474001344DB00034424331B6841F001021A6077
:1004840000BF1037BD4690BC704700BF000000207D
:1004940080B483B000AF0346FB71FA792349134655
:1004A4009B001344DB000B4408331B681968FA797A
:1004B4001E4813469B001344DB00034408331B68A7
:1004C40041F001021A60FA79184913469B0013445B
:1004D400DB000B4408331B681968FA791348134688
:1004E4009B001344DB00034408331B6841F03C02C7
:1004F4001A60FA790D4913469B001344DB000B4440
:1005040010331B681968FA79084813469B00134492
:10051400DB00034410331B6841F001021A6000BF82
:100524000C37BD465DF8047B704700BF0000002017
:1005340080B500AF00F094F9044B9B681A68034B34
:100544009B6842F020021A6000BF80BD00000020BA
:1005540080B500AF00F084F9044B1B6B1A68034BA1
:100564001B6B42F020021A6000BF80BD0000002017
:1005740080B483B000AF0346FB71084B1B68FA7963
:10058400012101FA02F21146044A0B43136000BF31
:100594000C37BD465DF8047B704700BF303802401D
:1005A40090B482B000AF0446084611461A4623466A
:1005B400FB710346BB710B467B7113463B71FA79A1
:1005C400564913469B001344DB000B441B6819680F
:1005D400BB795B00032202FA03F3DB431C46FA797E
:1005E4004E4813469B001344DB0003441B6801EA96
:1005F40004021A60FA79494913469B001344DB004C
:100604000B441B6819687A79BB795B0002FA03F31F
:100614001C46FA79414813469B001344DB0003440B
:100624001B6841EA04021A60FA793C4913469B00AC
:100634001344DB000B4404331B681968BB790122A3
:1006440002FA03F3DB431C46FA79344813469B0051
:100654001344DB00034404331B6801EA04021A60F8
:10066400FA792E4913469B001344DB000B440433F0
:100674001B6819683B7903F00102BB7902FA03F3A2
:100684001C46FA79254813469B001344DB000344B7
:1006940004331B6841EA04021A60FA791F491346BD
:1006A4009B001344DB000B440C331B681968BB79B3
:1006B4005B00032202FA03F3DB431C46FA79174872
:1006C40013469B001344DB0003440C331B6801EA0C
:1006D40004021A60FA79114913469B001344DB00A3
:1006E4000B440C331B6819683B795B1003F003025D
:1006F400BB795B0002FA03F31C46FA7907481346F8
:100704009B001344DB0003440C331B6841EA0402DE
:100714001A6000BF0837BD4690BC704750000020E7
:1007240090B484B000AF0346FB710B46BB71134613
:100734007B71FA792C4913469B001344DB000B446C
:100744001B681B68BA795200032101FA02F21A40AD
:10075400BB795B0022FA03F3012B3DD17B79002B9B
:100764001BD0FA79204913469B001344DB000B4449
:1007740014331B681968BB79012202FA03F31C467F
:10078400FA79194813469B001344DB0003441433DD
:100794001B6841EA04021A601BE0FA791249134605
:1007A4009B001344DB000B4414331B681968BB79AA
:1007B400012202FA03F3DB431C46FA790A48134682
:1007C4009B001344DB00034414331B6801EA040256
:1007D4001A600023FB7301E00123FB73FB7B1846C3
:1007E4001037BD4690BC70475000002080B586B0DD
:1007F40004AF0020FFF7BCFE0023012200210020EB
:10080400FFF7CEFE0020FFF7E3FC0323039302234C
:10081400029302230193642300930F4B0F4A002198
:100824000020FFF735FD00237B6000237B600BE095
:100834007B680133642202FB03F208497B6841F8B8
:1008440023207B6801337B607B68632BF0D9002015
:10085400FFF71EFEFEE700BFC0000020500200208C
:1008640080B500AF012200210020FFF759FF00BF2F
:1008740080BD80B400AFFEE780B400AFFEE780B473
:1008840000AFFEE780B400AFFEE780B400AFFEE740
:1008940080B400AF00BFBD465DF8047B704780B4F0
:1008A40000AF00BFBD465DF8047B704780B400AF65
:1008B40000BFBD465DF8047B704780B500AF00F013
:1008C4003FF800BF80BD000080B400AF064BD3F8F2
:1008D4008830054A43F47003C2F8883000BFBD462F
:1008E4005DF8047B704700BF00ED00E0DFF834D012
:1008F4000D480E490E4A002302E0D458C450043374
:10090400C4188C42F9D30B4A0B4C002301E013604A
:100914000432A242FBD3FFF7D7FF00F025F8FFF71C
:1009240065FF70470000012000000020A4000020A3
:10093400D4090008A4000020E4030020FEE700001E
:1009440080B400AF064B1B781A46064B1B68134451
:10095400044A136000BFBD465DF8047B704700BFC6
:10096400A0000020E003002070B50D4D0D4C641B69
:10097400A4100026A64209D10B4D0C4C00F018F827
:10098400641BA4100026A64205D170BD55F8043B93
:1009940098470136EEE755F8043B98470136F2E7ED
:1009A400CC090008CC090008CC090008D0090008CB
:1009B400F8B500BFF8BC08BC9E467047F8B500BF48
:0809C400F8BC08BC9E46704718
:0409CC00B901000865
:0409D0009501000885
:1009D4000064024004640240086402400C64024063
:1009E4001064024014640240186402401C64024013
:1009F400206402402464024000600240046002401B
:100A0400086002400C600240106002401460024022
:100A1400186002401C6002402060024024600240D2
:100A24000000024004000240080002400C000240A2
:100A34001000024014000240180002401C00024052
:100A4400200002402400024000040240040402404A
:100A5400080402400C040240100402401404024042
:100A6400180402401C0402402004024024040240F2
:040A7400010000007D
:04000005080008F1F6
:00000001FF
